:100000000C9456000C9475000C9475000C947500BB
:100010000C9475000C9475000C9475000C9475008C
:100020000C9475000C9475000C9475000C9475007C
:100030000C9475000C9475000C9475000C9475006C
:100040000C9475000C9475000C9471010C94D00103
:100050000C9475000C9475000C9475000C9475004C
:100060000C9475000C9475000C9475000C9475003C
:100070000C9475000C9475000C9475000C9475002C
:100080000C9475000C9475000C9475000C9475001C
:100090000C9475007E6E7F620C37260C37120C377D
:1000A0000E0C37060C37020C37000C3611241FBE1D
:1000B000CFEFD0E1DEBFCDBF11E0A0E0B1E0E8E3DB
:1000C000FAE000E00BBF02C007900D92A839B1071B
:1000D000D9F711E0A8E9B1E001C01D92A63FB10730
:1000E000E1F70E94C5030C941A050C9477001F9247
:1000F0000F920FB60F9211240F900FBE0F901F900A
:1001000018951F920F920FB60F9211240F900FBEE9
:100110000F901F901895E82FF0E0E856FE4F808171
:100120000895811110C01092C50089E18093C40028
:100130008091C20086608093C2008091C10088696E
:100140008093C10011C0813079F41092CD0089E113
:100150008093CC008091CA0086608093CA00809111
:10016000C90088698093C90078940895611107C017
:100170009091C00095FFFCCF8093C60008C061300D
:1001800031F49091C80095FFFCCF8093CE0080E0C1
:1001900008951F93CF93DF93162FEC018991882345
:1001A00021F0612F0E94B600F9CFDF91CF911F910E
:1001B00008951F93CF93DF93162FEC018991612F40
:1001C000882319F00E94B600F9CF8DE00E94B60096
:1001D000612F8AE0DF91CF911F910C94B60080913E
:1001E000F401811102C08FEF089580E0982F92955D
:1001F000907F9093ED009091EF00907C21F08F5FC5
:100200008F30A1F7F0CF0895883070F49091DE0020
:1002100021E030E0082E01C0220F0A94EAF7209571
:1002200029232093DE0008959091DF00885021E07B
:1002300030E0082E01C0220F0A94EAF72095292306
:100240002093DF000895883068F49091DE0021E06B
:1002500030E0082E01C0220F0A94EAF7922B909307
:10026000DE0008959091DF00885021E030E0082EF4
:1002700001C0220F0A94EAF7922B9093DF000895B1
:10028000883068F59091D80091609093D80090E004
:100290009C01220F331F280F391FF901EC56FF4F25
:1002A000E491E093E200F901EB56FF4FE491E09313
:1002B000E300F901EA56FF4F24912093E4001092E5
:1002C000DA0080EB8093DB0087EC8093E5008FEF12
:1002D0000E94E80182E08093D80081E0089580E0E8
:1002E00008951F920F920FB60F9211242F933F93F0
:1002F0004F938F939F938091EC00807F803F09F410
:1003000041C03091ED008091EC00807F8093ED0042
:100310002091EC0022952F708091EE0086FF0CC09A
:100320008091EE001092EE001092EF008091F401A7
:100330008F5F8093F40105C08091F5018F5F8093FA
:10034000F501283070F44091DE0081E090E0022E4B
:1003500001C0880F0A94EAF7809584238093DE0019
:100360000EC04091DF00285081E090E0022E01C0D5
:10037000880F0A94EAF7809584238093DF003093F6
:10038000ED0004C08091DA008093DA009F918F9194
:100390004F913F912F910F900FBE0F901F90189586
:1003A0001F920F920FB60F9211240F900FBE0F9055
:1003B0001F9018959091F50181E0911101C080E0A6
:1003C00008959091F40181E0911101C080E00895B9
:1003D0008F30E8F08F3F09F04DC01092DF0010928F
:1003E000DE0080E0982F9295907F9093ED009091A1
:1003F000EF001092EF009091EE001092EE008F5FF0
:100400008F3081F71092F5018093F40135C090E8A8
:100410009093D8009091D90093FDFCCF1092D80012
:100420009091D90092FDFCCF982F9295907F909358
:10043000ED009091EE001092EE001092EF000E94FD
:1004400004019091ED0080E0282F2295207F2093D9
:10045000ED002091EF002093EF008F5F8F30A1F728
:100460009093ED0082E08093D8008091D90082FFC4
:10047000FCCF02C080E0089581E00895FB018F3039
:1004800008F0DAC090E89093D8009091D90093FDDD
:10049000FCCF1092D8009091D90092FDFCCF982FFC
:1004A0009295907F9093ED001092EE001092EF00E5
:1004B00090859C709C3009F062C09081990F990FD3
:1004C000990F9093F0004081518162817381A5E082
:1004D0007695679557954795AA95D1F74093F10082
:1004E0004081518162817381BDE076956795579512
:1004F0004795BA95D1F74093F200408151816281CE
:10050000738195E176956795579547959A95D1F7BB
:100510004093F300248198E0299F900111242160E9
:100520002093F400448155816681778125E076959A
:100530006795579547952A95D1F74093F5004481E3
:100540005581668177813DE076956795579547950A
:100550003A95D1F74093F6004481558166817781C1
:10056000A5E17695679557954795AA95D1F740935C
:10057000F7009091EF0090619093EF002DC01092E2
:10058000F0001092F10090819295990F907E9093D7
:10059000F2002081318143E0369527954A95E1F7B5
:1005A0002093F30090859C7021F091E09093F400EB
:1005B00002C01092F4001092F50094819295990F68
:1005C000907E9093F6002481358193E036952795AF
:1005D0009A95E1F72093F700908591FF0DC09091D7
:1005E000F40094609093F400908590FF05C0909182
:1005F000F00094609093F0009091EF0090689093D9
:10060000EF000E9423019091ED0080E0282F2295B9
:10061000207F2093ED002091EF002093EF008F5F6B
:100620008F30A1F79093ED0082E08093D800809105
:10063000D90082FFFCCF02C080E0089581E00895D8
:10064000CF93DF9300D000D0CDB7DEB7FC0180910F
:10065000EF00982F9F709583948184FF1EC0809136
:10066000F00089838091F1008A838091F2008B836E
:100670008091F3008C8349815A816B817C8183E076
:1006800076956795579547958A95D1F7408351831D
:10069000628373839260948315C08091F200829587
:1006A000869587704091F30028E0429FA0011124B5
:1006B000482B60E070E04083518362837383892F0D
:1006C0008D7F84839091F000848192FF03C08160CC
:1006D00084830EC08E7F8483CF010696DC01258142
:1006E0003A2F381B321720F42091FA002D93F7CFC0
:1006F0000F900F900F900F90DF91CF9108950F936F
:100700001F93CF93DF93EC010E94DA01811102C0A5
:1007100080E02AC010E0812F8295807F8093ED00D9
:100720008091EE0001E0010F85FF1AC08091EE007C
:100730001092EE00CE010E9420038FB7F8949091A2
:10074000F50191509093F5018FBF812F0E942301F5
:100750009091EF00907190689093EF00802F04C00B
:10076000102F0F30C1F6D4CFDF91CF911F910F9191
:100770000895823020F48091D800886003C0809171
:10078000D800877F8093D8000895CF93DF93CDB7AB
:10079000DEB76F970FB6F894DEBF0FBECDBF81E016
:1007A0000E94910087E00E94400180E00E94B9030E
:1007B0001F86188A198A1A8ABE01615F7F4F80E0FE
:1007C0000E943E02212C312C412C512C612C712C89
:1007D00000E010E0E12CF12CC12CD12CA12CB12C8B
:1007E000812C912C0E94DA018823E1F389819A817E
:1007F000AB81BC81803623E09207A105B105C9F425
:100800008F80912C982C88248885882AA984B12CE3
:10081000BA2CAA248A85A82ACB84D12CDC2CCC24FF
:100820008C85C82AED84F12CFE2CEE248E85E82AD6
:100830001DC0803E9340A105B105C1F40F8110E0B9
:10084000102F00278885082B6984712C762C66244C
:100850008A85682A4B84512C542C44248C85482A40
:100860002D84312C322C22248E85282ACE0101960B
:100870000E947F03882309F4B5CF61E08BE10E94D9
:10088000B60061E080E091E00E94C90061E08BE188
:100890000E94B60061E084E091E00E94C90061E03E
:1008A00087E091E00E94C9004AE050E0BE01685E26
:1008B0007F4FC4010E94E00461E0CE0148960E948F
:1008C000D90061E085E191E00E94C9004AE050E072
:1008D000BE01685E7F4FC5010E94E00461E0CE0169
:1008E00048960E94D90061E088E291E00E94C90028
:1008F0004AE050E0BE01685E7F4FC6010E94E004FE
:1009000061E0CE0148960E94D90061E08AE391E05F
:100910000E94C9004AE050E0BE01685E7F4FC701F7
:100920000E94E00461E0CE0148960E94D90061E097
:100930008DE491E00E94C9004AE050E0BE01685E8B
:100940007F4FC8010E94E00461E0CE0148960E94FA
:10095000D90061E080E691E00E94C9004AE050E0E1
:10096000BE01685E7F4FC3010E94E00461E0CE01DA
:1009700048960E94D90061E082E791E00E94C90098
:100980004AE050E0BE01685E7F4FC2010E94E00471
:1009900061E0CE0148960E94D90061E085E891E0CF
:1009A0000E94C9004AE050E0BE01685E7F4FC1016D
:1009B0000E94E00461E0CE0148960E94D90012CF67
:1009C000FB019F01423074F0453264F4642F7727B5
:1009D0000E940605805D8A330CF0895D8193CB010E
:1009E0000097A1F71082C9010C94F604DC01FC0108
:1009F000672F71917723E1F7329704C07C916D9353
:100A000070836291AE17BF07C8F30895AA1BBB1B82
:100A100051E107C0AA1FBB1FA617B70710F0A61BFE
:100A2000B70B881F991F5A95A9F780959095BC011F
:080A3000CD010895F894FFCFF9
:100A38005B324A005B480072617752706D56616C98
:100A480075653A20007261775468726F74746C65CA
:100A580056616C75653A20007261774D6166507217
:100A6800657356616C75653A2000726177436F6FE4
:100A78006C5072657356616C75653A2000726177C7
:100A8800436F6F6C54656D7056616C75653A2000E4
:100A980072617741697254656D7056616C75653A1B
:100AA80020007261774675656C54656D7056616C8F
:100AB80075653A20007261774F696C54656D7056A0
:080AC800616C75653A20000025
:00000001FF
